:020000022000DC
:10600000000004205DF202009DF202009FF20200F7
:10601000A1F20200A3F20200A5F2020000000000BB
:10602000000000000000000000000000D9F10200A4
:10603000A9F2020000000000F9F10200ADF2020036
:10604000E9F30200AFF20200AFF20200AFF2020089
:10605000AFF20200AFF20200F9CE0200AFF202008E
:10606000AFF20200AFF20200AFF20200AFF20200A4
:10607000AFF20200AFF20200AFF20200AFF2020094
:10608000AFF2020029EF0200AFF20200AFF202000D
:10609000AFF20200AFF20200AFF20200AFF2020074
:1060A000AFF20200AFF20200AFF20200AFF2020064
:1060B000AFF20200AFF2020000000000000000009A
:1060C000AFF20200AFF20200AFF2020079F6020076
:1060D000AFF20200AFF20200AFF2020075700200F0
:1060E000AFF20200AFF20200AFF2020000000000C7
:1060F00000000000AFF2020000000000F1F6020014
:10610000000000000000000000000000000000008F
:10611000000000000000000000000000000000007F
:10612000000000000000000000000000000000006F
:10613000000000000000000000000000000000005F
:10614000000000000000000000000000000000004F
:10615000000000000000000000000000000000003F
:10616000000000000000000000000000000000002F
:10617000000000000000000000000000000000001F
:10618000000000000000000000000000000000000F
:1061900000000000000000000000000000000000FF
:1061A00000000000000000000000000000000000EF
:1061B00000000000000000000000000000000000DF
:1061C00000000000000000000000000000000000CF
:1061D00000000000000000000000000000000000BF
:1061E00000000000000000000000000000000000AF
:1061F000000000000000000000000000000000009F
:10620000F1EE103A43F08073E1EE103A704700BFB0
:1062100010B5054C237833B9044B13B10448AFF3E0
:1062200000800123237010BD0863002000000000DF
:10623000E82D030008B5034B1BB103490348AFF336
:10624000008008BD000000000C630020E82D030062
:10625000154B002B08BF134B9D46A3F5803A002138
:106260008B460F461348144A121A0AF0ADF80F4B2A
:10627000002B00D098470E4B002B00D098470020F1
:10628000002104000D000D48002802D00C48AFF397
:1062900000800AF03DF82000290009F037F80AF0E4
:1062A00023F800BF000008000000042000000000E8
:1062B00000000000086300207C8200200000000035
:1062C0000000000008B50221082009F019FD04486B
:1062D00000F04CFDBDE808404FF4FA7006F04EBEE9
:1062E00024630020F0B5082083B009F0ABFD041E44
:1062F000114D14BF0126002601D12B782BB90520A2
:106300002E7006F03BFE03B0F0BD6B4622462146E0
:1063100004270A48ADF80440009700F07BFD0520F3
:1063200006F02CFE2146054800F078FD05202E7071
:1063300006F024FE03B0F0BD0060002024630020BE
:10634000014800F005BD00BF24630020014601485C
:1063500000F00EBB5863002038B5064B1D783DB1E8
:1063600000242046013400F083FFE0B28542F9D8D2
:1063700038BD00BF54630020407DFF280AD010B50F
:1063800000F010FF044608B1204610BD09F002FBE2
:10639000204610BD00207047407DFF280ED000B57C
:1063A00083B00DF1070100F059FF20B19DF80700FF
:1063B00003B05DF804FB4FF0FF30F9E74FF0FF301A
:1063C000704700BF407DFF280FD000B583B0012289
:1063D0000DF1070100F0F2FE20B19DF8070003B0B7
:1063E0005DF804FB4FF0FF30F9E74FF0FF307047E6
:1063F000407DFF2801D000F03BBF7047407DFF2863
:1064000001D000F0A3BF0020704700BFF8B50646DA
:10641000407DFF281CD017465AB10D46144600F0A7
:106420009DFE2946224680B1707D00F06BFF241A44
:1064300001D13846F8BD054409F0ACFA707D00F092
:106440008DFE294622460028EED13F1B3846F1E753
:106450000020F8BD002A00F097802DE9F0434B4959
:1064600091F81C9191F81D7191F81E8193B01D4611
:10647000064608F1010309F102001446BA1C81F82E
:106480001C0181F81D2181F81E3101A84222002142
:1064900009F09AFF412D73D9327D8DF814207A1CB2
:1064A000204662F07F0440F60832ADF8042040F246
:1064B000094540F20122ADF80C50ADF8102024251A
:1064C000334A8DF81650069209F101030422012582
:1064D000DBB28DF81C508DF81F208DF8302040F273
:1064E000022640F2075240F224658DF81E308DF8E6
:1064F00027308DF83130ADF808600223ADF8245014
:10650000ADF82820ADF83820224E8DF8073003254D
:1065100008228DF812308DF833308DF83B30089614
:1065200005238DF82B508DF82C2067F07F0740F65F
:1065300001160A2540228DF81530ADF82E608DF831
:10654000345001A98DF806908DF80E908DF82690A4
:106550008DF83A808DF82A7007268DF83C2044F299
:10656000020542228DF840308DF841408DF83F60A1
:10657000ADF8425009F000FF422013B0BDE8F083AF
:10658000002013B0BDE8F08342207047586300201C
:10659000200105242402060570B50368184A5B68CB
:1065A00082B093428DF8071021D10546407DFF2827
:1065B00023D000F0D3FD0DF1070601243146224619
:1065C00088B1687D00F09EFE241A02D1012002B03D
:1065D00070BD064409F0DEF9687D00F0BFFD31466C
:1065E00022460028EDD1C4F1010002B070BD0122A5
:1065F0000DF10701984702B070BD002002B070BDD8
:106600000D640200002A00F097802DE9F0434B4909
:1066100091F81C9191F81D7191F81E8193B01D465F
:10662000064608F1010309F102001446BA1C81F87C
:106630001C0181F81D2181F81E3101A84222002190
:1066400009F0C2FE412D73D932798DF814207A1CDD
:10665000204662F07F0440F60832ADF8042040F294
:10666000094540F20122ADF80C50ADF81020242568
:10667000334A8DF81650069209F1010304220125D0
:10668000DBB28DF81C508DF81F208DF8302040F2C1
:10669000022640F2075240F224658DF81E308DF834
:1066A00027308DF83130ADF808600223ADF8245062
:1066B000ADF82820ADF83820224E8DF8073003259C
:1066C00008228DF812308DF833308DF83B30089663
:1066D00005238DF82B508DF82C2067F07F0740F6AE
:1066E00001160A2540228DF81530ADF82E608DF880
:1066F000345001A98DF806908DF80E908DF82690F3
:106700008DF83A808DF82A7007268DF83C2044F2E7
:10671000020542228DF840308DF841408DF83F60EF
:10672000ADF8425009F028FE422013B0BDE8F083D6
:10673000002013B0BDE8F08342207047586300206A
:106740002001052424020605437DFF2B02D10A4BBC
:106750001A7802B1704710B500F11004427507496C
:10676000204601221A7000F0D7F921460448BDE8FE
:10677000104000F0DFB800BF54630020B8280300C9
:106780005863002001B900B1704700B583B0694675
:1067900000F0FAFC009BB3F5966F02D003B05DF8F1
:1067A00004FB00F07DFCF9E730B4084B084A4FF4D5
:1067B0007F4102F10805002430324FF47A7099824B
:1067C000C3E901401D601A6130BC70473C63002082
:1067D000C82803000378002B00F09280F0B505462E
:1067E000002004462E4603E001342B5D2E19C3B170
:1067F00003F14002D2B2012AF6D9F42BF4D81A06DA
:1068000010D40122A3F55846B6F5006FECD314441A
:10681000202806D021F810302B5D01302E19002BD6
:10682000E6D1F0BD03F0E002C02A52D003F0F0023E
:10683000E02A61D003F0F802F02AD5D103F0070373
:106840000427727802F0C00CBCF1800FCCD196F80E
:1068500002C00CF0C00E02F03F02BEF1800F42EA0F
:106860008313C1D10CF03F0C032F4CEA83132AD0C1
:10687000F27802F0C006802EB6D102F03F0242EA62
:106880008313A3F58032B2F5801F38BF0427ABD243
:10689000A3F55842B2F5006FA6D3B3F5803F3C4450
:1068A000B6D31E28BDDCA3F5803342009E0A0A44FD
:1068B000C3F30903A6F52056A3F5105321F8106081
:1068C0005380023091E7A3F50062B2F5784FDFD331
:1068D0008AE7727802F0C006802E03F01F0383D18E
:1068E00002F03F0242EA8313A3F18002B2F5F06F97
:1068F000BFF47AAF022285E703F00F030327A0E776
:106900001846704790F850310B2B0CD871B110B469
:1069100003F148025C1C80F850415DF8044B40F8DC
:106920002210184670470023184670470B46184639
:10693000704700BF70B504460E68B4F81821B4F86B
:106940001A31656936689B1A08469BB294F81C1187
:106950002A44B04758B1B4F81831626903449BB275
:10696000A4F81831538094F81C311371012070BDC4
:106970002DE9F043264DDFF8A890AC460446884642
:10698000BCE80F0089B003AF0FC703AE0FCE05F10F
:10699000140E25460FC59EE80700DCF800303B804A
:1069A0006B4636682E8003C36B4603CB012504F18A
:1069B00018034FF480766361A061E16184F82020C0
:1069C00004F59870C4F818912022A4F81C610021E5
:1069D00084F81E5109F0F8FC0E4E0F48A5710422F0
:1069E00040F2EF2340F209470021C4E94A0184F84C
:1069F0005021A3804FF4E131C4E948760748FFF7FE
:106A0000A3FE404600F03AFB284609B0BDE8F083FB
:106A100038290300FC280300082903003C630020F8
:106A2000090000012DE9F047D0F82C0188B00E468E
:106A300030B10231FFF7CEFEC0B208B0BDE8F0873A
:106A4000684600F02FFB8646F8B1431E06F10409A4
:106A5000DBB2114DE84609EB830904AC95E80F0061
:106A600018F8017B84E80F0007F00F0C0DF1200AE5
:106A7000D4440AEB17171CF810CC17F8103CA6F8F2
:106A800004C073800436B145E8D14FEA4E00C0B26D
:106A900008B0BDE8F08700BF242903000048704714
:106AA00058630020014B5869704700BF58630020AD
:106AB00010B5B0B103281CD0154C94F85031834266
:106AC00023D9483004F5AA7154F82000FFF782FE5C
:106AD000C3B201335B0043F440730E48A4F8523153
:106AE00010BD0B4CD4F82031A4F854314FF441734D
:106AF000F3E70849A1F5A9742046FFF793FF431C6B
:106B00005B0043F440739BB2E7E7002010BD00BF79
:106B100058630020AA64002010B504460248FFF71D
:106B2000F1FE207110BD00BF5863002010B5134C5A
:106B3000236882B003B3186851B906F061F923687D
:106B400093F90400012102B0BDE8104009F05CB9DE
:106B50000B4B00934FF48073ADF8043002AB13E994
:106B6000060006F0EBF8236893F90400002102B058
:106B7000BDE8104009F048B902B010BDEC64002037
:106B800080BA8C010448006828B108B5006806F096
:106B90003DF9012008BD7047EC640020084B1B68DC
:106BA00063B119B1074B40221A607047054B402270
:106BB000C3F88020BFF34F8FBFF36F8F704700BFC4
:106BC000EC64002000E100E02DE9F04F95B00446B0
:106BD00002931546002A00F0B1805C4B93F81D61CA
:106BE00093F81C91721C09F1010183F81C1183F8C0
:106BF0001D21027A46F080010191002A40F08F8029
:106C000090466789002F00F094801F2200210CA875
:106C100009F0DAFBE279237901998DF8441041F209
:106C2000211C161E4FF0000140F2094A4FF0090ED8
:106C300040F2023B8DF84B80ADF83AC04FF00108AE
:106C4000ADF81EC04FF0070C184618BF0126A379F7
:106C5000089105910A91ADF830A042F20121ADF8FA
:106C600014A0ADF834B040F2075A4FF0030B8DF882
:106C700039E08DF81DE08DF83C804FF0400E8DF826
:106C800020808DF849C04FF0050844F2030C0396AC
:106C90008DF83660ADF83E108DF84A808DF83800DA
:106CA0008DF848308DF83290ADF840708DF837206F
:106CB000ADF842A08DF845B08DF846E0ADF84CC077
:106CC0008DF84F30ADF82210217A8DF82C30064621
:106CD000019B03988DF81A0040F20138ADF8188036
:106CE000ADF826A08DF829B08DF82AE08DF81B208C
:106CF0008DF81C608DF81690ADF824708DF8283052
:106D000001BB192205A914462DB1029BA34210D341
:106D1000284609F031FB204615B0BDE8F08F93F806
:106D20001E8108F1010283F81E216789002F7FF47C
:106D30006CAF0024204615B0BDE8F08F904601925C
:106D400091465EE720220CA91446DDE75863002037
:106D5000044A054902600022C0E90112C0E9032289
:106D6000426170476029030000FF040038B5437991
:106D7000FF2B05D10B4D2B78012B03D9002038BDFB
:106D8000012038BD044601460748FFF7D3FD00281F
:106D9000F4D02B78054963715A1C41F823402A70BE
:106DA00038BD00BFF864002058630020F064002064
:106DB000024B53F8200000B1C0687047F064002017
:106DC00030B4094CBDF8085054F8204044B124694F
:106DD00034B10846A44611461A462B4630BC6047DB
:106DE000002030BC704700BFF064002030B4084C75
:106DF000BDF8085054F8204044B1646934B10846E5
:106E0000A44611461A462B4630BC604730BC70473A
:106E1000F0640020407900F0F1BC00BF002340790D
:106E20001A4600F0EBBC00BF024B186808B190F89E
:106E300060007047FC6400202DE9F843234C25686E
:106E4000002D40D01E462C2303FB00530446D3F8EC
:106E5000209088461746B9F1000F30D0484609F017
:106E6000C9FE0828024628BF08222C2000FB045433
:106E7000D4E90954DFF85CC0154B002D08BF654606
:106E800049464046002C08BF1C4609F075FA2846C2
:106E900009F0B0FE10280246294628BF10223846C5
:106EA00009F06AFA204609F0A5FE042802462146A8
:106EB000304628BF0422BDE8F84309F05DBADFF888
:106EC00018900822D1E7BDE8F88300BFFC640020D9
:106ED0007429030064290300FC28030070B5104ED8
:106EE0003368CBB12C2404FB0034054662691AB127
:106EF0009047336884F832002C2202FB053393F864
:106F000032400CB1204670BD284623463A22022169
:106F100001F0D4F8204670BD1C46204670BD00BF6D
:106F2000FC640020074B1B6853B110B42C2404FBF5
:106F30000030C46A038E0C605DF8044B1380704708
:106F4000704700BFFC64002008B520220023052103
:106F500001F0B4F84FF0FF3008BD00BF30B4084C6A
:106F6000256855B10446084611461A462C2303FBF2
:106F70000454E3690BB130BC1847012030BC7047A2
:106F8000FC64002030B4094C029A25684DB10446D7
:106F9000084619462C2303FB0454A3680BB130BCEC
:106FA00018474FF0FF3030BC704700BFFC64002032
:106FB00030B4094C029A25684DB10446084619467A
:106FC0002C2303FB0454E3680BB130BC18474FF08B
:106FD000FF3030BC704700BFFC640020044B1B68CE
:106FE0002BB12C2202FB0030036903B11847704714
:106FF000FC640020054B1B682BB12C2202FB0030E7
:10700000836903B118470120704700BFFC6400206A
:1070100005F0B8BA00B5154B83B0402283F827239A
:1070200001A901230020ADF8043002F0C5FF4FF0A4
:1070300080430024D3F838548DF80040684608F0A7
:1070400093F90B4B019301A808F0BAF908F0C4F9C1
:10705000EB0707D400214FF0FF3003F03DF8FFF7B6
:107060007BF9F7E7204605F08DFAF3E700E100E051
:1070700011700200002004F0EBBE00BF00B5002339
:1070800083B00322CDE9002303490448C82206F057
:10709000E9FE03B05DF804FB7829030015700200D7
:1070A00008F02ABE4FF08052536E1BBA0360136E75
:1070B0001BBA4360082070470048704780290300CE
:1070C00070B51E4D2B6883B1012913D11478C4F318
:1070D0004114012C0BD0022C07D15478012C0BD079
:1070E000022C07D19388072B20D0002070BD517847
:1070F00022290BD0012070BD9C69002CF5D023788B
:1071000011462246BDE8704003F0F4BE51880039B4
:1071100018BF01215975114603F0D2FE2A68D369C0
:10712000002BE7D0507D9847204670BD044C114697
:1071300023892246BDE8704003F0DCBE00650020D4
:1071400004600020704700BF704700BF704700BF59
:10715000704700BF704700BF704700BF10B50446BE
:1071600002F012FF08B9002010BD02F015FF002840
:10717000F9D104484FF4367303FB0400407900F062
:10718000010010BD84650020054B4FF4367202FBF0
:107190000033986808609A899B7B8B718A8070475E
:1071A0008465002008B5044B4FF4367202FB0030B2
:1071B000103002F0CBFC08BD846500202DE9F047BB
:1071C0004FF4367404FB00F4DFF88C804FF6FF7345
:1071D000064604F110054FF6FE70824288BF1A463B
:1071E000454492B2284602F0DDFC074602F0CCFE90
:1071F00010B93846BDE8F08702F0CEFE824600287E
:10720000F7D108EB040999F80330002BF1D0284698
:1072100002F0B6FC3F28ECD999F8031018F80400E6
:1072200003F09CFD0028E4D0284602F0A9FC3F288A
:1072300009D9084A99F80310504602EBC6124023B8
:1072400003F0ACFDD5E799F8031018F8040003F03B
:1072500095FDCEE70465002084650020034B4FF4C4
:10726000367202FB0030103002F00ABD8465002047
:107270002DE9F041064602F087FE10B90020BDE876
:10728000F08102F089FE0028F8D14FF436751A4FCC
:1072900005FB06F505F124043C44204602F056FCAB
:1072A0000028EBD007EB0508785D98F8021003F092
:1072B00055FD0028E2D01149402202EBC6160E44CB
:1072C0002046314602F06EFC044668B198F8021080
:1072D000785D3246234603F061FD50B9084B1B68C8
:1072E000DB07CBD500BECAE798F80210785D03F043
:1072F00045FD2046C3E700BF8465002004650020EB
:10730000F0ED00E038B5104B4FF4367404FB003458
:1073100005464FF6FF734FF6FE70824288BF1A464D
:10732000243492B2204602F0E5FC034620461C4677
:1073300002F00CFC3F2801D8204638BD2846FFF754
:1073400097FF204638BD00BF8465002008B5044B78
:107350004FF4367202FB0030243002F011FC08BDFD
:107360008465002070B5214C82B000214FF4367244
:1073700020460E4609F028F8FF234FF4E132082595
:1073800004F13801A371A26001234FF480720096CA
:1073900004F11000A573A68102F0A0FB144B1B782A
:1073A000C3F38003009304F59C7101234FF48072B2
:1073B00004F1240002F092FB04F50E71012006F0A6
:1073C0001BF804F522710546012006F015F805B1F9
:1073D00030B9084B1B68DB0700D500BE02B070BD9A
:1073E000C4E90765C4E90C0602B070BD84650020DD
:1073F000B8600020F0ED00E038B5094C206A256B3C
:1074000020B106F091FB0023C4E907332DB12846D3
:1074100006F08AFB0023C4E90C33012038BD00BF0D
:107420008465002010B50E4C0E48237800220260BF
:107430008280DA0709D59B070DD521780A48BDE877
:107440001040C1F3800102F017BD103002F0F4FCCF
:1074500023789B07F1D4044802F0EEFCEDE700BF6F
:10746000B860002084650020A86500202DE9F04167
:107470004B79022B82B002D18B79022B04D00025EC
:10748000284602B0BDE8F081384FBB782BB1384BAD
:107490001B68DB07F3D500BEF1E78B787B70387093
:1074A0000C780C440646617824294FF009050BD16D
:1074B000082A02D80FE0AA420DD323781C442B449B
:1074C000617824299DB2F6D0052927D0042902D15C
:1074D00063790A2B30D002F057FD0028D0D002F09B
:1074E0005BFD04460028CBD1FB78002BC8D0214897
:1074F00002F046FB3F28C3D9F978387803F02EFC18
:107500000028BDD01B4802F03BFB3F28F97828D962
:10751000194A2046402303F041FCB1E7214630469A
:1075200003F0F8FB0028B2D0A3783B7123781C4409
:107530002B4461789DB2C9E7104A94F8008001920B
:10754000022301320092304604EB08011A4603F090
:107550004FFB00289BD005F10E0318FA83F39DB270
:10756000B9E7387803F00AFC8AE700BF8465002099
:10757000F0ED00E0946500200465002086650020A1
:10758000137803F06003202B09D130B5294C938880
:1075900065789D4283B004D0002003B030BD002048
:1075A00070475378203B032BF6D8DFE803F02D28F3
:1075B0000C02012932D0032923D100205188FFF782
:1075C000CBFD0120E9E7012928D0032919D11A4B65
:1075D00052881978627111F0040102F0010418BF99
:1075E00084F00101C2F340021448019202F044FC0D
:1075F0000020019A2146FFF7C5F80120CDE70129B7
:1076000011D0012003B030BD01290CD00329F8D1DD
:1076100000200B49FFF79EFD0120BEE7114603F055
:107620004FFC0120B9E711460723054A03F062FC2D
:107630000120B2E784650020B8600020A865002022
:107640008C6500202DE9F047624DEA788A420C46AD
:1076500080461F4645D0AB788B4222D10020FFF7F1
:1076600075FD02F091FC002862D15B4802F06EFAD1
:1076700000282DD1002F2BD017F03F0728D1A97853
:10768000404603F06BFB18B3A97840463B463A46A8
:1076900003F084FBE0B9514B1B68DA071ED500BE2E
:1076A00008E02B798B4213D04C4B1B68DB0715D5B8
:1076B00000BE0020BDE8F087494802F057FA0028D4
:1076C0007BD002F061FC002857D1AB789C42C5D03A
:1076D0002B79A34226D00120BDE8F0870020BDE829
:1076E000F087404E9AB2314605F1100002F002FBDD
:1076F000AB79FF2BE0D0002FDED006EB070A05F1B7
:10770000100902E0B245D7D0AB7916F8012B9A42A6
:10771000F8D1484602F02AFA0028F3D1A979FFF7F8
:1077200013FDEFE70020FFF713FD0120BDE8F08710
:1077300002F032FC002898D1274802F007FA00280E
:1077400093D0A978287803F009FB00288DD026492A
:107750002148402202F026FA0346002830D0224A6F
:10776000A978287803F01AFB0028B1D11B4B1B68BD
:10777000D9077FF57AAF00BE77E702F00DFC064629
:107780000028A2D1EB78002B9FD0154802F0F8F921
:107790003F289AD9E978287803F0E0FA002894D0B5
:1077A0000F4802F0EDF93F280FD940230D4AE97840
:1077B000304603F0F3FAAB7888E7FFF7C3FC80E7C5
:1077C000A978287803F0DAFA4FE7E978287803F007
:1077D000D5FA7AE784650020A8650020F0ED00E086
:1077E000946500200465002044650020704700BFB8
:1077F00001207047704700BF704700BFF0B583B0ED
:10780000002504460E468DF800208DF80150002B0F
:107810003ED01A689B88CDF80220ADF80630012CC6
:1078200002D9002003B0F0BD1C4D04EB440705EB6A
:1078300087030020597803F091FA4FEA440C00289E
:10784000EFD0A6B9164B02A911E90300C02202FB32
:107850000432403282E803000823644405EB8405C7
:107860000020697803B0BDE8F04003F097BA0C49F6
:107870006B46C02202FB041201EB871703CB87F88B
:1078800040604032C2F80100C2F805100923E4E765
:10789000CDF80230ADF80630C1E700BFDC6900204A
:1078A0005C680020044B0022C3E90022C3E90222E5
:1078B000C3E90422704700BFDC6900200120704743
:1078C000044B0022C3E90022C3E90222C3E90422D7
:1078D000704700BFDC6900202DE9F0414B79032B94
:1078E00082B012D106460879C0EBC0051235ADB2A0
:1078F00095420C4605D8254F7A78002A42D07A7BEB
:1079000052B1234B1B68DA0704D40025284602B085
:10791000BDE8F08100BEF8E70C374FF4A07822787C
:10792000A31859782129ECD1BB60A15C07F1010EA5
:1079300007F1020C19440246CDE900CE032330467C
:1079400003F056F90028DCD0A379B978012B04BFE5
:10795000E379FB700123BB71A278BB683A70B3F87E
:107960000730BB800029D1D00A4A30464244402328
:1079700003F014FA0028C9D1054B1B68DB07C5D5F5
:1079800000BEC3E74FF08008C9E700BFDC690020F4
:10799000F0ED00E05C680020137803F01F0CBCF1F0
:1079A000010F13D12DE9F0410C4685499788154602
:1079B0000A78FFB2BA4282B0064609D00A7BBA42C0
:1079C00000F0CF80002002B0BDE8F08100207047B9
:1079D0000027B846BC460720062213F0600306D1F4
:1079E000012C00F0A280012002B0BDE8F081202B24
:1079F000E8D16B78013B0A2BE4D80FF2080E5EF851
:107A000023F000BFDB7A0200D37A0200BF7A0200C3
:107A1000C5790200C5790200C5790200C579020066
:107A2000C57902007F7A0200557A0200317A02009D
:107A3000012C1ED0032CD6D14FEA48036A88434458
:107A400001EB8303D2B2604611469A71FFF7CEFE76
:107A50000120B8E7012CC6D14FEA48036A884344A5
:107A600001EB8303110A6046D971FFF7C1FE0028BC
:107A7000A8D02946304603F023FA0120A3E7012CC1
:107A800000F08680032CAED1EC8869884D4B402CE9
:107A90004FEA1122204628BF402011F0FF013B444D
:107AA00007D0012C05D91C788C4202D1013880B254
:107AB000013300906046FFF799F9012083E7012C1C
:107AC00091D10A4429463046234603F013FA204652
:107AD00079E7012C87D10A18F4E7012C83D1B5F896
:107AE00006E06B883749704640280F4428BF402085
:107AF00013F0FF014FEA13223B465CD0BEF1010FA9
:107B00005BD9013803F8011B80B200906046FFF793
:107B100057F923189BB2002B46D12B4A1268D20783
:107B20007FF550AF00BE18464DE76B78062B7FF40B
:107B300049AF6B881B0A212B18D0222B7FF442AF50
:107B40006046FFF735F91E494FEA4803434401EB0D
:107B5000830302469B882946304603F0CBF9204632
:107B600031E7C02713201222E04636E74FEA4803E8
:107B7000984401EB8808D8F80820002A3FF422AF87
:107B800013782946304602B0BDE8F04103F0B2B99F
:107B9000EB88402B3FF616AF0A4A294630463A4456
:107BA00003F0A8F920460EE73A462946304603F08E
:107BB000A1F9012007E70C46A7E70024A5E700BFCD
:107BC000DC6900205C680020F0ED00E0F0B5304E8C
:107BD000B4788C4283B0054611D0707888422DD09D
:107BE000B07B884247D0707B88424CD0294B1B68C1
:107BF000DA0702D4002003B0F0BD00BEFAE77778C0
:107C000080244FF0400C0020B9421AD012BB224908
:107C10009BB20C440093114623460222FFF7E6F87C
:107C2000B17822462846402303F0B8F80028E2D174
:107C3000184B1B68DB07DDD500BEDCE74FF0400CBE
:107C400000207AB914499AB26144FFF7D3FD0120AC
:107C500003B0F0BD104A14449BB222460221FFF744
:107C6000CBFDDDE70C4A9BB262440121FFF7C4FD66
:107C7000012003B0F0BD777B4FF4A0740C364FF4B5
:107C8000807C0120C0E74FF4807C0120D9E700BF51
:107C9000DC690020F0ED00E05C680020704700BF68
:107CA00070B51A4C82B000210D464FF4EC7220469C
:107CB00008F08AFB04F138010123802204F110004E
:107CC000009501F00BFF04F1B8010123802200951B
:107CD00004F1240001F002FF04F59C71012005F07D
:107CE0008BFB04F5C4710646012005F085FB30B915
:107CF000074B1B68DB0700D500BE02B070BDC4E9AE
:107D00000756C4E90C0502B070BD00BF746A0020BC
:107D1000F0ED00E038B5094C206A256B20B105F084
:107D200003FF0023C4E907332DB1284605F0FCFE0C
:107D30000023C4E90C33012038BD00BF746A002061
:107D400010B5084C002304F11000C4E90033C4E965
:107D5000023302F071F804F12400BDE8104002F093
:107D60006BB800BF746A00202DE9F0474B79012BF6
:107D700003D000242046BDE8F0878B79012B0D4607
:107D80008046924618D049780429F2D10024032B6A
:107D9000EFD1E8790028ECD1DFF8F09099F80110E4
:107DA00099F8023051EA030722D0354B1B68DB07F4
:107DB000DFD500BE0446DDE7CB79002BD9D10B78A7
:107DC0001D449CB2697824290BD1944202D9D0E792
:107DD000A245CED32B781D442344697824299CB234
:107DE000F6D00429C5D16B79012BC2D1AB79CEE78E
:107DF000AB7889F800302E7828793444A4B22E4428
:107E000030B920E0337887421C44A4B21E441AD211
:107E1000A24518D37378052BF4D13146404602F0C1
:107E200079FF0028C1D0B3782879DA0914BF89F81E
:107E3000013089F8023096F800C07B1C6444DFB240
:107E4000A4B26644DEE70F4801F09AFE3F2891D9BC
:107E500099F80210002002F081FF00288AD009481A
:107E600001F08EFE3F2899F8021005D9064A4023FA
:107E7000002002F093FF7DE7002002F07FFF79E70A
:107E8000F0ED00E0846A0020346A0020746A00206B
:107E900000207047F8B53C4DAC788C421E4625D189
:107EA0003A499AB205F1100001F024FF0020FFF7D3
:107EB000F5FE05F1100001F063FE3F2802D8012411
:107EC0002046F8BDA978002002F048FF04460028AB
:107ED000F5D005F1100001F053FE3F28A9784AD9EA
:107EE0002A4A4023002002F059FFE9E76B788B42D1
:107EF00008D0274B1C6814F00104E1D000BE002418
:107F00002046F8BD074605F1240001F01FFEB8B970
:107F1000204801F01BFE0028D1D1002ECFD016F052
:107F20003F06CCD16978384602F018FF0446002895
:107F3000C5D0697838463346324602F02FFFBFE796
:107F40006978002002F00AFF0028E1D0124940229F
:107F500005F1240001F026FE034680B10E4A69783F
:107F6000002002F01BFF0028A9D1094B1B68DB078A
:107F7000CED500BECCE7002002F000FFA0E7697874
:107F800002F0FCFEC4E700BF746A0020346A0020DF
:107F9000F0ED00E0986A0020F469002038B5184C34
:107FA000E57F94F82E10284602F056FFC8B9A36862
:107FB000626B934202D9217BC9091AD19B1A114ADB
:107FC000A3620FCA104D07C52A4694F82E1002F876
:107FD0000C390325E07F84F838500D2302F0DEFED3
:107FE00008B1012038BD094B1B68DB07FAD500BE7C
:107FF00038BD284694F82E1002F010FF0120F1E75A
:108000004C6E00206C6E00204C6C0020F0ED00E007
:1080100010B5214A011ED47F84B004DC4B1C22D051
:1080200081B104B010BD8BB2204692F82E101B4ACD
:1080300002F0B4FE0028F4D1194B1B68DA07F0D522
:1080400000BEEEE792F82E308DF8083001A8072325
:108050008DF8044003918DF809108DF8053002F079
:108060005BFC04B010BD9168536B0E489063CB1A53
:108070000120936282F82C000029D2D0002BD0D0AE
:10808000137BDB0914BF92F82E1092F82F102046B4
:1080900002F0C4FEC5E700BF4C6E00204C6C00200F
:1080A000F0ED00E002023A0000207047704700BF88
:1080B000704700BF0120704712207047044880F8C5
:1080C000391080F83A2080F83B300120704700BF1B
:1080D0004C6E002002484022002108F075B900BF14
:1080E0004C6E002002484022002108F06DB900BF0C
:1080F0004C6E002030B54C79082C83B002D18C79BD
:10810000062C02D0002003B030BDCC79502CF9D120
:10811000162A05D8184B1B68D907F3D500BEF1E71E
:10812000164C8A7884F82D20E0770B7804F12F0222
:1081300004F12E0519440223CDE900251A4602F068
:1081400057FD28B90C4B1B68DA07DBD500BEDAE710
:1081500000250B4A94F82F10E07F84F838501F2335
:1081600002F01CFE08B11720CDE7034B1B68DB07AC
:10817000F9D500BE1720C6E7F0ED00E04C6E0020F8
:108180004C6C0020012901D00120704770B5137894
:1081900003F07F01022984B0054610D003F060038C
:1081A000202B09D15378FE2B27D0FF2B04D15388E5
:1081B00013B9D388002B38D0002004B070BD547898
:1081C000012CEBD15388002BF6D1374E938896F8CB
:1081D0003820042AD9B24FD096F82E408C422DD0A8
:1081E00096F82F408C4205D122B9214602F008FEB4
:1081F000002845D0012004B070BD5388002BDBD18E
:10820000D488012CD8D10192FEF70EFE0028D3D0DD
:10821000019A461E1146284623460DF10F028DF89D
:108220000F6002F067FE2046C7E71F4C1146C4E905
:108230000C332846A36302F043FEDBE7022AD9D1C0
:10824000726BB368194D9B1AB36206F120030FCB12
:1082500007C52A46F07F02F80C39032386F8383028
:1082600021460D2302F09AFD0028C3D1104B1B6854
:10827000DB07A1D500BEA0E702F0D0FD20469CE7B9
:108280002146284602F0E8FD0028B3D10024074A21
:1082900096F82F10F07F86F838401F2302F07EFDFD
:1082A0000028A7D1E2E700BF4C6E00204C6C0020F4
:1082B000F0ED00E02DE9F043B34C94F83850012D77
:1082C0008BB01E467BD0032D0F4658D035B1022D02
:1082D00000F08B8001200BB0BDE8F08394F82F30C4
:1082E0008B42F7D11F2E804640F09380DFF8A49296
:1082F000A64BD9F800209A4240F08B80CC46BCE8CF
:108300000F0026460FC69CE80F0007C626F8023B62
:108310001B0C3370D4E90102E37B9D4EA562012161
:10832000282B84F82C50656360622263266284F8EF
:10833000381000F0AB802A2B00F09182002A00F068
:108340005981217BC90940F05581B2F5007F40F287
:10835000128394F83930A26201210222E07F84F86E
:108360002C1084F8382023B90522202384F83920E2
:108370006387394602F052FD94F83850A7E794F825
:108380002E308B42A6D10D2EA4D1E37B282B00F0FA
:108390005E822A2B00F05F82607B04F10F01FFF701
:1083A00087FE00257B4A94F82F10E07F84F8385030
:1083B0001F2302F0F3FCE8B194F8385087E7B3F5D7
:1083C000007F1DD8E37B282B32D02A2B00F09E8023
:1083D000636B227B3344D209636300F08B80226B92
:1083E0009A427ED8022384F83830FFF7D7FD002860
:1083F0007FF470AF684B1B68DB0706D500BE6AE7E9
:10840000654B1B68DE0700D500BE00200BB0BDE841
:10841000F083042394F82E1084F83830404602F09C
:10842000FDFC404694F82F1002F0F8FC002052E7C3
:10843000D4E90C23334493426363D3D2E28AA06825
:1084400052BA92B212B1B0FBF2F292B2C01AD4F8A0
:108450001110B3FBF2F5B0F5007F28BF4FF40070A8
:1084600009BA02FB1532009029444A4B607B012572
:1084700084F83C50FEF786FD851C9DD0002384F8CF
:108480003C30FFF7C5FD94F8385020E7E18A49BA3F
:1084900089B2002A00F08280207BC50900F0938019
:1084A000002900F01B828A42C0F0A182282B00F034
:1084B0006C82607BFEF79EFD002800F08A82A36834
:1084C000656B344A94F82F10E07F5B1BB3F5007F97
:1084D00028BF4FF400739BB202F060FC00287FF4C9
:1084E0006BAF2D4B1B68DA077FF566AF00BE94F8C3
:1084F0003850ECE6238E274A607B04F10F01FEF72B
:1085000023FD0028C0F2C881636B68E7E08A40BAA7
:1085100080B218B1A368B3FBF0F080B2D4F81110A8
:10852000676B1C4DB7FBF0F209BA1144009600FBD3
:1085300012722B46607B012784F83C70FEF738FDF1
:10854000811C3FF439AF0023984284F83C30C0F2DC
:10855000DB81864240F2F081361A002840F04982E1
:1085600094F82F50E27F8DF818500021072305A8BA
:1085700007968DF819108DF814208DF8153002F03B
:10858000CBF994F83850A2E64C6E00205553424384
:10859000555342534C6C0020F0ED00E000293FF4AD
:1085A00021AF94F839200223002184F82C3084F87C
:1085B0003830A162002A7FF418AF0522202384F806
:1085C0003920638711E794F83910E07FA262022313
:1085D00084F82C3084F8383000297FF4CAAE0522A4
:1085E000202384F839206387257BED09002D3FF493
:1085F000C0AE4AE1657B252B3CD8DFE813F02101B2
:108600003B003B00F3003B003B003B003B003B00DA
:108610003B003B003B003B003B003B003B003B0082
:108620003B0026003B003B003B003B003B003B0087
:108630003B008F00C3003B003B009D003B003B0024
:108640003B003B00D0003B006C0024220021B648D8
:1086500007F0BAFEB54BC9F80030B3491F234FF4F9
:108660000072284689F80430FFF71EFD002800F04C
:10867000CF8140DA94F83930002B6CD1238EAA4A8E
:10868000AB49607BFEF760FC002864DB98BBA36805
:10869000002B3FF4A7AE616B94F83920E07F5B1AA2
:1086A00001250221A36284F82C5084F8381022B9E5
:1086B0000521202284F839106287002B3FF495AE03
:1086C000237BDB0940F0E18094F82F1002F0A6FB39
:1086D00094F83850FBE5284604AA05A9FEF722FCC9
:1086E000059B83B3BDF810206AB3013B1BBA12BAD5
:1086F000C9E900320820A568002D40F05B81636B5A
:1087000094F839205B4201200221A36284F82C00F6
:1087100084F83810002A7FF468AE4EE72846FEF74A
:1087200069FC80F00103DBB2DB0543F00303059332
:10873000C9F800300420DEE7227DE17C2846FFF7FF
:10874000B9FC0028A3D194F8393023B902223A2386
:1087500084F839206387A268636B94F83910E07F4E
:108760000125D31A84F82C500225A36284F83850CE
:1087700021B90525202184F839506187002A3FF46A
:1087800034AE9AE7E17C2846C1F3400301F00102D0
:108790000909FEF7E3FB00287FF479AFD3E705AEC4
:1087A00000230DF10E02284604A973600593B360FF
:1087B000FEF7B8FB049A002AC5D0BDF80E30002B96
:1087C000C1D012BA082106925BBA0222ADF81E305F
:1087D0008DF817108DF81C2096E8070089E807002F
:1087E0000C2088E7002794F83920608FADF82470BA
:1087F000CDE90577CDE907774FF0000362F3030376
:10880000F0210A228DF81630ADF820008DF81410F2
:108810008DF81B2005AE0FCEDFF80CC1ACE80F00C1
:108820006146336821F8103928464FF40072FFF78B
:1088300043FC002884F839706787BFF627AF1DE72F
:108840002846FEF74BFB00283FF47DAF1FE7607B17
:10885000FFF72CFCA5E5607BFEF7C0FBA1E5E18AF4
:1088600049BA89B2002A3FF499AE207BC5093FF48A
:1088700017AE94F83910E07FA262022384F82C30FE
:1088800084F8383000293FF4AAAE94F82E1002F094
:10889000C5FA94F838501AE5A268636B94F8396009
:1088A00084F82C500220D11A84F83800A162E07FAD
:1088B00026B90526202584F839606587002A3FF40B
:1088C0008EAD00293FF48BAD237BDB0900F0978050
:1088D00094F82E1002F0A2FA636B80E5012194F85F
:1088E000393084F82C100221E07FA26284F838101D
:1088F000002B7FF47BAE0521202384F83910638799
:10890000002A3FF472AD6FE601307FF455ADA268E6
:10891000636B0849E07F84F82C70D31AA362A163CB
:10892000002A3FF462ADC8E64C6C002000800202D1
:108930005B6E002002023A00D4E90C2333449342D8
:108940006363BFF44FAD607BFEF754FB00285BD040
:10895000626BA36894F82F10E07F9B1AB3F5007F39
:1089600028BF4FF400732A469BB202F017FA002882
:108970007FF422ADB5E593B239462A4A404602F06B
:108980000DFA00287FF418AD34E5B2F5007FD4F875
:108990001110244B607B28BF4FF40072009209BA7B
:1089A0000125002284F83C50FEF7ECFA871C3FF4C6
:1089B00003AD63E5854228BF05461A4A94F82E1098
:1089C0002563ABB2404602F0E9F900287FF4F4AC2D
:1089D00010E5A268636B1449A163D31A0121E07FFB
:1089E000A36284F82C10002A3FF4FFAC65E6022154
:1089F00075E729183246284607F0CCFCB0E594F814
:108A00002F1002F00BFA7FE5A268636B064981E73D
:108A1000064B2846A3F11002A3F11801FEF70CFA49
:108A2000242068E64C6C0020020727006C6C0020B4
:108A3000704700BF704700BF70B5134C134E84B031
:108A400020464FF4AE72002107F0BEFC4025002303
:108A500004F58E72CDE90156009219461A4604F1CA
:108A6000B000039504F012F82E4404F170020023C4
:108A7000CDE90025CDE90265201D1946012204F04B
:108A800005F804B070BD00BF0C6F00208C6E002094
:108A900010B5054C04F1B00004F022F8201D04F0DC
:108AA0001FF8012010BD00BF0C6F002038B5074C27
:108AB0002046002500F8B85B01F0BEF904F10C0077
:108AC00001F0BAF984F8B150657138BD0C6F00201F
:108AD0004B79FF2B01D0002070472DE9F04FDFF8D4
:108AE00010A10B780E4683469AF805109AF8B1004B
:108AF000B51850EA010283B006EB030403D000204E
:108B000003B0BDE8F08FB2788AF80020A54217D9EB
:108B1000F25CA3189D4213D30AF1B8080AF1B0071A
:108B20000AF10C096278042A0AD00B2A08D0052A17
:108B30000BD09D421C4603D91A7813449D42F1D2B2
:108B4000A01B80B203B0BDE8F08F2146584602F06A
:108B5000E1F8002841D0A378DB0905D19AF8B130BB
:108B60000BB32278A318E4E79AF80530002BF8D16C
:108B70004846019301F060F9A2788AF80520A2889E
:108B80009AF804C0019B1849C2F30A02A2F50072C8
:108B9000B2FA82F2520962F3410C18468AF804C014
:108BA00003F0EAFFDDE7404601F046F9A3788AF8D2
:108BB000B130A3889AF8B020C3F30A03A3F5007379
:108BC000B3FA83F35B0963F34102394658468AF8E6
:108BD000B02004F01FF80028C3D1044B1B68DB074A
:108BE0008DD500BE8CE700BF106F0020F0ED00E0D7
:108BF0000C6F002030B51D4C94F8B1208A4283B030
:108C0000054618D1B4F8BC205AB99AB218490020C8
:108C1000FFF70EFF1749284603F0FCFF012003B0C1
:108C200030BD9AB2D4F8B410019204F1B80001F04A
:108C300061F8019AEAE762798A4202D0002003B023
:108C400030BD99B200200193FFF7F4FE211D2846A4
:108C500003F092FF019B08B10120E0E71A46211DB5
:108C6000284603F049FF0120D9E700BF0C6F002020
:108C70008C6E0020BC6F0020F8B50F688D883D44D5
:108C8000AF420E46B9780BD20B468B423C4603D11D
:108C90000DE06378042B05D023781C44A542F8D856
:108CA0000020F8BDAC42FBD2A3788B42F4D1E3782C
:108CB0009A42F1D1A542F3D9237D012B1FD8237904
:108CC00023B3012BECD12378E289617A1A44194449
:108CD00022442144914204D3E2E70B7819448A42AA
:108CE000DED94B78052BF8D18A42D9D902F012F897
:108CF00060B9084B1B68DB07D2D500BEF8BD054B39
:108D00001B68DA07CCD500BE0020CAE7E41BF4805C
:108D10000120F8BDF0ED00E0F0B4C488002C45D08F
:108D2000037867488A7803EB830503EB4503C05853
:108D300003191D7BAA4239D822B9012D00F2A68061
:108D400001228A7001258D60C1F80E504D770026F2
:108D50006FF03F0581F822608D766FF003066FF0AB
:108D60006405CE760D77574EC1F81E60082581F850
:108D70002350005DB3F80D5005441D440344AB423D
:108D800014D2514F9C78102C0CD827FA04F0C04311
:108D900010F0010006D1DE78B24203D112E058781B
:108DA00024280CD0187803449D42F8D8474B1B6800
:108DB000DA0702D40020F0BC704700BEFAE79D42FB
:108DC000E0D8F3E79D42F1D0062C06D0102C04D059
:108DD000042CF0D1012248730A7391F803C01A7968
:108DE00094451BD8BCF1000F05D1012A4ED84FF095
:108DF000010C81F803C01A781A44AA420ED2967860
:108E000006F0FD07052F0FD0112E03D10CE0567888
:108E1000242E3ED0167832449542F8D82B4B1B684E
:108E2000DB07C7D500BEC6E7D678B445F2D1954278
:108E3000F4D0D1F812503DB9062C2DD0102C2BD0E7
:108E4000042C32D0C1F812504C6854B9537E012B17
:108E50001CD8D2F81A401BB9D2F81E30A34215D143
:108E60004C6042F20F739C42D8D9194A6B1EA2FB88
:108E7000042403EB5433640BB3FBF4F30233B3F574
:108E8000807F28BF4FF48073C1F816300120F0BCFA
:108E900070479542B3D8C1E7B2F80530B2F8075031
:108EA00005FB03F52D01ED08CCE7B2F80560B2F83B
:108EB00007405D7D04FB06F305FB03F5ED08C1E704
:108EC000687000200301010150100100F0ED00E086
:108ED0005917B7D12DE9F04F0B78624C03EB83059E
:108EE0000E4603EB45030989E75883B09146804657
:108EF00079B13944CB7803F00303012B00F09E8055
:108F0000738933B13B44DA7802F00302012A00F09E
:108F10009B807488B58800233C44B381F3813382FD
:108F20007382B382F382A2783D44AC4238BF1346C9
:108F300009D29A4203D10FE06378042B07D023783B
:108F40001C44A542F8D8002003B0BDE8F08FA5422C
:108F5000F9D9A3789A42F2D1E3789945EFD1A542A5
:108F6000F1D923790193022B0FD8E31BF380B9F1D8
:108F7000000F10D1737F012B4CD123781C44019B2F
:108F80006BB9012003B0BDE8F08F374B1B68DA07DF
:108F9000D9D500BED7E723781C44019B83B306F1E3
:108FA000080A4FF0000BA54206D8EEE7042BECD0E0
:108FB00023781C44A542E8D96378052BF6D1A54255
:108FC000E3D9E37803F00303B9F1000F01D0012BDB
:108FD00019D0022BB7D12146404601F09BFE002854
:108FE00039D0E31B2AF8023B019A21780BF10103E7
:108FF0009A420C444FF0010BD5D8B9F1000FC0D004
:1090000002237377BDE7A388B169C3F30A038B42D8
:10901000E1D298E706F11E03494686F81D90A6F8AE
:109020001890A6F81A901846302207F0CDF901469C
:109030003046FFF771FE00289FD184E7002333817B
:10904000897801F017FF5BE700227281997840462A
:1090500001F010FF5DE7044B1B68DB077FF573AF82
:1090600000BE71E768700020F0ED00E0704700BFBF
:109070000020704700207047044B05480021C3E9D9
:1090800000114E22C3F8071007F09EB96870002047
:109090007471002001207047044B05480021C3E98A
:1090A00000114E22C3F8071007F08EB96870002037
:1090B000747100202DE9F84F4B790E2B03D18B7979
:1090C000012B0E4603D000273846BDE8F88FCB7938
:1090D000012BF8D1DFF834911446D9F800202AB1D9
:1090E000484B1B68DB07EED500BEECE749468046DF
:1090F000C9F80060A9F80440FFF7BEFD0028E2D0DF
:10910000B9F80620D9F80030B17813443444A642A7
:1091100093F814A0334605D308E05A78042A3DD0CA
:109120000B2A3BD01A7813449C42F6D8BAF1000FB0
:1091300065D03549DFF8D8E048884FF0000C62462A
:10914000E3460028CCD19D1B0EF8010B0870A8B295
:1091500048809C429F784A7005D84DE05A78042A8E
:1091600016D00B2A14D01A7813449C42F6D89A1BB6
:1091700097B28F8081F81DB0BCF1000F14D00CF1B4
:10918000010C5FFA8CF29245DBD8A9F804709BE7DA
:109190009C42ECD99A78BA42E5D0E8E79C42C5D91E
:1091A0009A788A42BED0C1E7BAF1010FE7D116FA28
:1091B00085F516FA82F29542A9780AD20B469942B1
:1091C00003D113E06B78042B0BD02B781D44AA42FB
:1091D000F8D80D4940460022FFF77CFE0028D4D184
:1091E00071E7AA42F5D9AB789942EED1EB78012B21
:1091F000EBD1AA42C9D1ECE707462A46B9E79B1B47
:109200009FB2C2E7F0ED00E07471002068700020AA
:10921000707000202DE9F04F1678174606F01F02F7
:10922000012A8DB019D1DFF808A38946DAF8005079
:10923000B9888046CAB215B1AB78934212D0BA4E03
:1092400074885CB1357805EB850305EB43055AF866
:1092500005502C44A378934211D0002420460DB031
:10926000BDE8F08FC6F3411B16F0600F5C4649D095
:10927000012C27D007238AF809300024EEE73B7839
:10928000C3F3411A13F0600F524600F0B780012A71
:1092900015D1090A13D17B881A0A022A00F04C81E1
:1092A000062A00F0FC80012A00F00F819F4B1B680A
:1092B000DB0704D500BE072333770024CEE707235E
:1092C0003377CAE7090A61D0BAF80630E818EA5CD1
:1092D000C3891A44024490420FD28378023B052B83
:1092E00007D8C3788B4204D107E04378242B00F0E1
:1092F0008180037818448242F7D800238AF8093025
:109300000124ABE77B780A2B5CD00B2B34D1B9F16D
:10931000010FF2D1FB88002B4FD1BAF80630EA18C2
:109320001179C1B1E85CD189537A014403441344F3
:109330000A44934205D3D4E119780B449A4240F28F
:10934000D08159780529F7D19A4240F2CA8199789B
:10935000404601F08FFD0025AAF806507A8874492E
:109360004046FFF789FC044638B33946404601F0D1
:10937000A7FD8AF8095071E76C4B1B6813F00103D5
:109380006CD107221C468AF8092067E77B881A0AF5
:10939000012A68D0022A57D17B78812B00F05C81AA
:1093A000862B51D1B9F1010FA7D1624A4B463946FC
:1093B000404601F09FFD00289FD1FF238AF8093025
:1093C00000244BE7B9F1010F97D1FB88012BF4D1B1
:1093D000BAF8062005EB020C39469CF803208DF8FC
:1093E00000206A4601F086FD04460028E5D08AF890
:1093F00009B033E782423FF670AF7EE77B780A2BF5
:109400000AD00B2B10D0494B1B68D9077FF557AFFB
:1094100000BE0723337720E7B9F1010F00F0F68093
:1094200000233377012419E7B9F1010FF8D17A88C5
:1094300031464046FFF74EFD002800F0FB803946DC
:10944000404601F03DFDEBE7384B1C6814F0010489
:1094500040F0D68007238AF80930FFE600BE0723D4
:109460008AF80930FAE67B78812B00F01481862B8C
:1094700000F00081012BE7D1B9F1010F00F00F815D
:10948000B9F1020F7FF439AF9AF80A100020FFF704
:10949000EFFDB0FA80F48AF809006409DEE67B7813
:1094A000812B00F0CA80862B7FF400AFB9F1010F49
:1094B000B6D1204A39464046012301F01BFD002861
:1094C000AED1FF2333770024C8E6737F03B17177F1
:1094D00097F801C0BCF1010F00F0EF800CF17F03A1
:1094E000DBB2062B3FF6E2AEACF18104062C3FF670
:1094F000DDAEDFE804F02B3C3C3C04673C00B9F1F6
:10950000010F8DD1FB88022BDBD130243946404638
:109510006A46ADF8004001F0EDFC04460028D0D0CA
:10952000002333779AE600BF74710020F0ED00E06D
:1095300068700020B92903007B78852BDFD053D8D1
:10954000012B00F0D580812B7FF4B0AEB9F1010F73
:109550007FF466AFFB88002BB3D0BB4A3946404648
:10956000302301F0C7FC00287FF45AAFA9E7B9F116
:10957000010F7FF455AFFB88002BA2D0B24CE94617
:1095800004F1300A20686168A268E368CE46AEE85C
:109590000F0010345445F146F4D19DF80210002913
:1095A00040F0CA80BCF1830F00F0B081BCF1870F9E
:1095B00000F09181BCF1820F00F08D810823337798
:1095C00000244BE6B9F1010F7FF42AAFFB88012B91
:1095D0007FF477AF4B469D4A3946404601F08AFCFE
:1095E00000287FF41DAF6CE7862B7FF45FAEB9F1E6
:1095F000010F7FF415AFFB88012B7FF462AFEAE720
:1096000000BE07238AF80930002427E6FB88012BD7
:1096100010D1F38873B11D443946EA788DF80020E3
:109620004B4640466A4601F065FC044610B186F898
:109630001CA013E6FF2333770FE6B9F1010F7FF487
:10964000EFAE4B463946404606F11C0201F052FC93
:1096500000287FF4E5AE34E7B9F1010F7FF44DAE99
:109660007B4A39464046012301F044FC00287FF440
:1096700044AEA2E6B9F1010F7FF43FAEFB88012BA7
:109680007FF49BAE714A3946404601F033FC002816
:109690007FF433AE91E6B9F1010F7FF42EAEFB8873
:1096A000012B7FF48AAE6B4A39464046012301F014
:1096B00021FC00287FF421AE7FE6B9F1010F3FF4D1
:1096C0004CAFB9F1020F7FF4ABAE5F49A1F11E00C0
:1096D000FFF722FB044600287FF4A2AE082333776D
:1096E000BCE55D4B1B68D8077FF567AE00BE64E63E
:1096F000B9F1010F3FF431AFB9F1020F7FF490AE31
:109700005149A1F11E00FFF707FB04460028E5D0F0
:10971000736B4D4A71783078B361FFF7ABFC00286A
:109720007FF47EAE4D4AF0604FF48073C6E90400CA
:10973000A2F80090B38391E59DF80300002840F063
:109740009180F288002A3ED0AB18AA5CB3F80D00D5
:10975000434C104418441344984211D99A78102A63
:109760000AD824FA02F2D20706D5DA78914203D158
:1097700007E05A78242AEFD01A7813449842F8D890
:109780000346BCF1830F5CD0BCF1870F4DD0BCF118
:10979000820F7FF413AF01218DF803101A781A4459
:1097A00090420ED9947804F0FD05052D12D0112CAD
:1097B00003D10FE05478242CF2D014782244904244
:1097C000F8D8024609E0244B1B68DA077FF5F6AEAD
:1097D00000BEF3E6D478A142EFD1997806291BD0D8
:1097E000102919D004297FF4E9AEB2F80510B2F8B7
:1097F00007205B7D02FB01F203FB02F3DB08CDF8DF
:1098000012306A4639464046302301F073FB044665
:1098100000287FF485AE54E6B2F80510B2F80730A0
:1098200003FB01F31B01DB08E9E79A78062A06D05F
:10983000102A02D0042A7FF4C1AE997DACE7997951
:10984000AAE71979A8E700BF92710020BA2903009E
:109850007170002072700020F0ED00E07470002044
:1098600050100100019B002BCBD1F388002BAAD014
:10987000EA1815F803E0B2F80D305A4D7344D418C5
:109880007244944211D99378102B0AD825FA03F325
:10989000DB0706D5D378994203D107E05378242B10
:1098A000EFD013781A449442F8D8224613781A4419
:1098B00094420ED9937803F0FD0105292ED0112B87
:1098C00003D12BE05378242BF2D013781A4494421E
:1098D000F8D8224625E001238DF8023001234FF00D
:1098E0000112029300230392ADF810304FF6C042EC
:1098F00040F29B13ADF81A20ADF81C303A4ACDF86F
:109900001E204FF40063ADF822307AE7F388002B75
:10991000E4D02B441B7B8DF80230DFE7D3789842EC
:10992000D3D1ACF18203052B3FF648AE01A151F82B
:1099300023F000BFBB9902009F99020075990200B5
:10994000BD950200BD9502004D990200D2F8151098
:1099500042F21073B1FBF3F30191D1B1DDF81220A3
:109960008BB9931CB3F5807F28BF4FF48073CDF87B
:10997000163046E7537E63B9D2F8221042F21073D4
:10998000B1FBF3F3E8E7013A1A44B2FBF3F3023315
:10999000E8E70023ADF81630ADF8183031E7537E14
:1099A000CBB1053302EB8303D3F80210D2F81A309F
:1099B00042F21072B3FBF2F3CEE7537E73B105337C
:1099C00002EB8303D3F80230D2F81A1042F210727D
:1099D000B3FBF2F3C0E7D2F81E10E7E7D2F81E306F
:1099E000F2E700BF50100100030101012DE9F04F23
:1099F000364F83B03C8900905CB13B78344E03EB2A
:109A0000830203EB42020D46B258224492788A4206
:109A100008D0304B1B68DB0717D500BE002003B011
:109A2000BDE8F08FD7E9042494420BD31846797827
:109A30000023C7E903337B61FFF718FB012003B064
:109A4000BDE8F08F01F08AF918B9002003B0BDE835
:109A5000F08FDFF884A0D7F814909AF800003B69E3
:109A6000D7F818B0A0EB09089844C3455C4628BF56
:109A70004446A04211D9174B1B6813F0010320D1B3
:109A80000098154A294601F089F90028D7D1114BD1
:109A90001B68DA07D9D500BED1E7F968221A494414
:109AA0005044019206F068FC019AC3454A447A6129
:109AB0000AD39AF8012042F00202A3B28AF80120E8
:109AC000DEE700BE0023DBE7A3B2D9E77471002014
:109AD00068700020F0ED00E0747000202DE9F04186
:109AE000B2F5004F9DF818802CD80446C068164681
:109AF0000F461D4618B14FF0FF3103F08DFE20696F
:109B000018B14FF0FF3103F087FEC5F30E05E06892
:109B10002760002345EAC8356381E580A68023815C
:109B200018B11A46194603F0B7FA206938B1002374
:109B30001A46194603F0B0FA0120BDE8F081012071
:109B4000BDE8F0810020BDE8F08100BF03894289B3
:109B5000808892B29BB2934236BFC2EB40029B1AFE
:109B60009B189BB2984228BF1846704702894389C8
:109B700090B29BB2C01AB0FA80F04009704700BFA3
:109B800003894289808892B29BB2934236BFC2EB6E
:109B900040029B1A9B189BB2984286BFC01A80B2A3
:109BA000002070472DE9F047054600698846914638
:109BB00018B14FF0FF3103F02FFE2B896C89AF886D
:109BC0009BB2A4B2A34236BFC4EB47061E1BF618D5
:109BD000B6B2002E4CD0B74242D34E4528BF4E46B7
:109BE000A742B6B203D8E41BA4B2A742FBD9B5F88A
:109BF000069029683B1B9BB2C9F30E029E42914618
:109C000002FB041126D913FB02F3F71B1FFA83FA98
:109C10003C445246404614FB09F406F0ADFB29686B
:109C2000A2B208EB0A0006F0A7FB6A89AF8892B2DD
:109C300093199BB29A421DD97A009B1A9BB228694C
:109C40006B8120B100231A46194603F025FA3046ED
:109C5000BDE8F08702FB06F2404606F08DFBE4E724
:109C6000BB422CBFDC1BDC19A4B26C813E46B4E7BE
:109C70006B899BB2B3EB470F4FEA4702DFDBDCE7B0
:109C800038B5044600690D4618B14FF0FF3103F0B6
:109C9000C3FD22896389A18892B29BB29A4236BFE2
:109CA000C3EB4100D01A801880B200B3814209D2C0
:109CB0008A422CBF531A53189BB29942638103D82E
:109CC0005B1A9BB29942FBD9E2882168C2F30E026B
:109CD000284602FB031106F04FFB0125206920B145
:109CE00000231A46194603F0D7F9284638BD054621
:109CF000F4E700BF2DE9F04F154683B01AB30646CE
:109D0000C068894618B14FF0FF3103F085FDF27944
:109D1000B6F808807389B788D2091FFA88F89BB211
:109D200015D1984536BFC3EB4703A8EB0303434463
:109D30009BB29F422CD80025F06820B100231A4620
:109D4000194603F0A9F9284603B0BDE8F08FBD42DB
:109D500050D2984536BFC3EB4702A8EB03024244FA
:109D600092B279002A448A4219DB03EB070A1FFAF0
:109D70008AFAAAEB05081FFA88F8434558D9A8EBD8
:109D800001081FFA88F805EB080A1FFA8AFA0AE0A8
:109D9000FB1A9AB2954228BF1546002DCCD005EB90
:109DA000080A1FFA8AFA4745444603D8E41BA4B2BE
:109DB000BC42FBD2F3883068A7EB040B1FFA8BFB85
:109DC000C3F30E02AB4502FB04001CD302FB05F2F9
:109DD000494606F0D1FAB288C2454FEA420302D39F
:109DE000BAEB420F03DBAAEB030A1FFA8AFAA6F8C2
:109DF00008A0A1E7F188ED1BC1F30E0101FB059955
:109E000098463D46C9E71BFB02FB1FFA8BFB0192FC
:109E100049465A4606F0B0FAEF1B019B30682744CA
:109E200017FB03F292B209EB0B0106F0A5FAD2E799
:109E30004145B8DCA3E700BF10B50446C06818B1BF
:109E40004FF0FF3103F0E8FC206918B14FF0FF310B
:109E500003F0E2FCE06800236381238118B11A4615
:109E6000194603F019F9206920B100231A46194652
:109E700003F012F9012010BD38B5C379B1EBD31F3F
:109E80001FD00446C0680D4618B14FF0FF3103F0F3
:109E9000C3FC206918B14FF0FF3103F0BDFCE3793A
:109EA000E06865F3C713E37120B100231A46194631
:109EB00003F0F2F8206920B100231A46194603F096
:109EC000EBF8012038BD00BF2DE9F0411F4C21788F
:109ED000FA2920D04FF000081D4E1E4D074642467D
:109EE0000FE02B6813EB800328D0DB6838469847D7
:109EF000217808F101088B1DDBB25FFA88F29342EA
:109F000009D9531A914202EBC20003EBC303E8D80C
:109F100006EB8303E9E7104C38222046002106F0C7
:109F200053FA4FF0FF33C4E90233C4E90533C4E9FF
:109F3000073323616360A384BDE8F081074B1B688E
:109F4000DB07F9D500BEBDE8F08100BFC871002075
:109F5000C8290300C47100201C720020F0ED00E04D
:109F6000704700BF704700BF002070470020704757
:109F7000704700BF704700BF704700BF704700BF09
:109F80000023037018467047024B5878003818BFFA
:109F9000012070471C720020024B1878C0F380002B
:109FA000704700BF1C720020024B1878FF3818BFA2
:109FB00001207047186100202DE9F0473B4E3378AF
:109FC000FF2B82B050D10C4600295CD038220021F2
:109FD0000546374806F0F8F9364B37494FF0000A86
:109FE000012083F800A003F007FA344B1860002822
:109FF0003FD0334F3B467A6833F80C0B7988CDF865
:10A0000000A002F0D7FFB968074603F0B1FD2D4B61
:10A010001F6077B32C4FDFF8B8803846FFF7B0FFEA
:10A020003978C8F80000F92923D8DFF8A8905346FA
:10A030000EE0D8F8003013EB82031AD05B68C3B18E
:10A04000984739788A1DD2B25FFA8AF39A4220D9AA
:10A0500099420AF1010A03EBC302EAD85B1A03EB47
:10A06000C30309EB8303E9E70124204602B0BDE8FE
:10A07000F087164B1B68DA0700D500BE0024204687
:10A0800002B0BDE8F087114B1B68DB07F6D500BEB8
:10A09000EBE721462846357001F01CFC04460028F9
:10A0A000F1D0284601F018FCDFE700BF186100205E
:10A0B0001C7200201C730020CC7100205472002000
:10A0C000BC60002058720020C8710020F0ED00E054
:10A0D000C4710020C82903002DE9F04FAE4F3B7832
:10A0E000FF2B8DB031D004464FF47A7200238002EA
:10A0F000A10D05F07DFF012838BF0120A74DDFF835
:10A10000B092DFF8B0A28046661C286800F0D480C8
:10A11000002C14BF4246002209A903F021FAA0B185
:10A120009DF82530013B072B00F2E483DFE803F0C4
:10A13000B9B0A79C944010040A9B0BB10B989847A8
:10A14000286803F0E5FC0028DED10DB0BDE8F08FF3
:10A150009DF82810924B01F07F0603EB460303EBBA
:10A16000D11393F826006FF3000083F8260093F8CC
:10A1700026006FF3820083F82600002E00F0AD80E9
:10A18000884A1B7D12789342C0F09880901DC0B21F
:10A19000834280F09B809B1A03EBC30309EB83038C
:10A1A0009E699DF829200B9B9DF82400B047C7E7C6
:10A1B0007D4A1378002B00F089801378013BDBB2D5
:10A1C0001370137803F0FF00002BB9D1DFF8D0B182
:10A1D0009DF824609BF8003043F001038BF80030B9
:10A1E0009BF8263060F300038BF826309BF826306E
:10A1F00060F382038BF826309BF8273060F300036E
:10A200008BF827309BF8273060F382038BF82730D8
:10A2100000F0D4FE9DF8282002F06003602B0BD0E4
:10A22000402B00F01D8202F01F02012A00F0C480C2
:10A23000022A7BD0002A58D05C4B1B68DB0700D574
:10A2400000BE9DF82400002101F0C4FD9DF824000B
:10A25000802101F0BFFD73E7514B1B78D8077FF5D4
:10A260006FAFFFF78BFE6BE74D4B1A78D6077FF584
:10A2700067AF1878C0F3C000FFF77EFE60E7484B79
:10A28000DB78D9077FF55CAF0A98FFF76BFE57E7DD
:10A290009DF82400FFF718FE00F086FEFFF76AFE27
:10A2A0004EE79DF82400FFF70FFE00F07DFE3C4BCB
:10A2B0009DF828209A7043E722462DE7DAF800201F
:10A2C00003EBC30312EB83037FF46AAF374B1B68C6
:10A2D000DF077FF53AAF00BE37E70B9B9DF82920DB
:10A2E0009DF8240000F07CFE2AE7202B00F0C481BA
:10A2F000002BA1D19DF82930092B9DD801A252F83D
:10A3000023F000BFF7A50200D7A5020039A2020082
:10A310001DA6020039A20200B9A5020067A502002D
:10A3200039A202004FA502005BA402009DF82C1088
:10A3300001F07F0EBEF1080F3FF67EAF0BEB4E0231
:10A34000184802EBD11292F814C002784FEA4E007E
:10A35000039094454FEAD110029067D3901DC0B28C
:10A36000844580F0AA81ACEB020202EBC20209EB49
:10A3700082020192002B00F0A481019B586900F039
:10A380001DFE019B30465B690AAA012198470028FF
:10A390007FF4D6AE55E700BF186100205872002048
:10A3A0001C720020C87100201C730020F0ED00E03A
:10A3B000C8290300C47100209DF82C300F2B3FF6F4
:10A3C00040AFCD4A5B4412781B7993423CD3911D38
:10A3D000C9B28B42BFF435AF9B1A03EBC30309EB41
:10A3E000830BDBF8140000F0E9FDDBF814300AAA57
:10A3F00001213046984700287FF4A2AE9DF828300E
:10A4000013F0600B7FF41DAF9DF829300A3B012B40
:10A410003FF617AF00F0D2FD9DF829300A2B0AA9AC
:10A42000304600F0E68100F04BFD89E6DAF80020C6
:10A430000CEBCC0002EB80020192002B00F041817A
:10A44000002A3FF4FEAE98E7DAF8002003EBC303DE
:10A4500012EB830B3FF4F5AEC3E79DF82A209BF87F
:10A4600001309A4200F08A819BF80130002B40F0C5
:10A470009E818BF80120002A00F07E81501EC0B220
:10A48000FCF710FB002800F0DC814378022B40F041
:10A49000D881C2799BF80010C2F340131B01C2F3AC
:10A4A000801221F0300143EA42130B438BF8003055
:10A4B00043880696CDE90184C318049300F109018D
:10A4C000049B8B4240F29D814B780B2B03BF0B7892
:10A4D00091F80380C9184FF001084B78042B40F025
:10A4E000AE81854B049A1B78521A92B2FA2B0592D0
:10A4F00000F0A5810022039216461EE0DAF8004023
:10A5000014EB820400F09B812369059A0698079159
:10A510009847039B0799013308280393024603D900
:10A52000059B834280F07381734B9DF80C601B7810
:10A530009A1DD2B2B24240F28281F41AB34206EBC3
:10A54000C60204EBC404D9D809EB8404DCE79BF809
:10A5500001308DF82230304601230DF122020AA984
:10A5600000F0C8FCECE5BDF82A00030A5A1EC0B290
:10A570000E2A3FF666AE01A151F822F0D5A70200DF
:10A580003DA602008BA8020043A2020043A20200E3
:10A590006DA802003DA6020043A2020043A20200F1
:10A5A00043A2020043A2020043A2020043A202000F
:10A5B00043A202005FA802000AA800F005FD9DF872
:10A5C0002A10304601F08EF99BF8003043F0020368
:10A5D0008BF80030B4E5BDF82A30012B7FF431AEA2
:10A5E0009BF8003030466FF3C3030AA98BF80030A4
:10A5F00000F066FCA4E59BF800309A0802F0020225
:10A60000C3F3401330460AA943EA020602230DF1C0
:10A610002202ADF8226000F06DFC91E5BDF82A3011
:10A62000012B7FF40EAE9BF80030304643F0080358
:10A630000AA98BF8003000F043FC81E5022B00F002
:10A640002C81FFF793FC024600283FF4FAAD5388B3
:10A6500030460AA900F04EFC00287FF471ADF0E509
:10A66000264800F0ABFC30460AAA0121FCF728FD81
:10A6700000287FF465ADE4E59DF82C300F2B3FF604
:10A68000E0AD1D4A5B4412781B79934238D2DAF868
:10A69000002003EBC30312EB830B3FF4D2ADDBF8D6
:10A6A000140000F08BFCDBF8143030460AAA0121BC
:10A6B000984700287FF444ADC3E5002B7FF4C1AD7B
:10A6C00001939DF8293003F0FD02012A23D0002BCD
:10A6D0007FF4B2AD039B029A5B441344304693F877
:10A6E00026600DF12202C6F3400602230AA9ADF846
:10A6F000226000F0FFFB23E5C8710020C17002005A
:10A70000911DC9B28B42BFF49CAD9B1A03EBC303EE
:10A7100009EB830BC3E7BDF82A200492A2B9012BF1
:10A72000387830D001F056FB039B029A5B44134407
:10A7300093F8262042F0020283F8262093F8262080
:10A7400042F0010283F82620019B002B3FF4F8AC75
:10A75000586900F033FC019B0AAA5B69012130466D
:10A760009847002000F02AFC9BF82730DA073FF5D5
:10A77000E7AC0AA9304656E6FFF7FCFB30460AA9CB
:10A7800000F09EFBDCE401F049FB039B029A049974
:10A790005B44134493F8262061F3410283F826209A
:10A7A00093F8262061F3000283F82620CCE70021ED
:10A7B0003046029201F0A8F8304601F04DF99BF8BE
:10A7C000023001933046FFF77FFB019B029A8BF822
:10A7D00002304EE6FCF762F9024600283FF42CAD49
:10A7E000304612230AA900F085FB00287FF4A8ACAC
:10A7F00027E501230DF122028DF822B000F07AFB4B
:10A800009EE4DDE90184069EFFF7B2FBB6E7B8F1EE
:10A81000010F5AD0B8F1000F46D091F802E00023A2
:10A8200002E0A04506713FD90EEB03005BFA80F011
:10A83000013390F804C0BCF1FF0FDCB2F1D0DDE9C8
:10A840000184304B1B68DB0700D500BE2D4B1B6815
:10A85000D90700D500BE00238BF80130F1E4FCF7E6
:10A860002BFC024600287FF4F2AEEAE4FFF77CFB03
:10A87000024600283FF4E5AC137830460AA900F000
:10A8800039FB00287FF45CACDBE4BDF82C10FCF74E
:10A890000FF902460028EFD1D3E4FCF703F9024692
:10A8A00000287FF4D4AEC7E43346174805920391DD
:10A8B00002F0D0F8154B03991B78059A0633DBB2EA
:10A8C000B34211443FF6FCADB9E723691048114C7F
:10A8D000A34208BF4FF0020883429ED14B79012B5F
:10A8E0009BD18B79012B98D1CB79002B08BF4FF0EE
:10A8F000020892E7034B1B68DA077FF521AC00BE24
:10A900001EE400BFF0ED00E030720020C8710020AE
:10A91000697D02006D7402002DE9F0434378023B2B
:10A9200085B004460D46052B42D8DFE813F0A6009B
:10A9300074009D00BA00C3000600017911F07F0287
:10A9400036D0A34EA34B06EB420000EBD1101F788C
:10A95000037DBB424FEA42024FEAD11CC0F0268180
:10A96000B81DC0B2834223D29B48DB1B03EBC30359
:10A9700000EB8303DF69DFB116446644A36896F8F1
:10A98000260062796FF3000086F8260096F826000C
:10A990006FF3820086F8260020782036B847C8B9C1
:10A9A000B37943F00103B371B37943F00403B37196
:10A9B0008A4B18688DB92B464FF0FF32214602F0C2
:10A9C0006BFB003818BF0120E8B1617820782A4677
:10A9D000FFF7C6FA05B0BDE8F083002301AA2146BF
:10A9E000019302F03FFD019B43B17D4B4FF080523C
:10A9F0005A6040BFBFF34F8FBFF36F8F003818BF4F
:10AA000001200028E1D1774B1B68DB07E2D500BEAF
:10AA100005B0BDE8F0836F4E3178FA2954D04FF07D
:10AA200000086D4FDFF8C49143460CE0D9F80030C0
:10AA300013EB820310D108F101088A1D5FFA88F335
:10AA4000D2B29A4240D98B4203EBC302EED35B1AD7
:10AA500003EBC30307EB83031B6A002BEBD0616896
:10AA6000207898473178E6E7594B1A78D607B1D560
:10AA70001A7842F004021A709AE7554B1A786FF36D
:10AA800000021A701A7800216FF341021A7059708F
:10AA90001A7861F382021A70504B1868002D9CD10D
:10AAA00089E74B4B1A78D00794D51A786FF3820256
:10AAB0001A707DE74C4A13780133DBB21370474BB1
:10AAC0001868002D89D176E7414E33785F072BD582
:10AAD0003378424A6FF38203337021781068002381
:10AAE0000522CDE9013303938DF804108DF805207C
:10AAF00001A9002D51D06A46009302F0B3FC009BDF
:10AB000043B1374B4FF080525A6040BFBFF34F8F75
:10AB1000BFF36F8F003818BF012000284FD1314B91
:10AB20001B68D90700D500BEF378DA077FF552AF6E
:10AB30002A4A636821781068029303220023019354
:10AB400003938DF804108DF8052001A9E5B16A463C
:10AB5000009302F087FC009B43B1214B4FF08052E1
:10AB60005A6040BFBFF34F8FBFF36F8F003818BFDD
:10AB7000012000283FF447AF9DF805109DF8040020
:10AB80002A46FFF7EDF925E72B464FF0FF3202F09A
:10AB900083FA003818BF0120EBE72B464FF0FF3255
:10ABA00002F07AFA003818BF0120B6E70F480068B3
:10ABB00003EBC30310EB83033FF4FAAEDAE69DF830
:10ABC00005109DF804002A46FFF7CAF9ACE700BF5C
:10ABD0001C720020C8710020C82903005872002090
:10ABE00000ED00E0F0ED00E01C730020C4710020D7
:10ABF0002DE9F84F0A9F002A40D0DFF88C90DFF84B
:10AC00008C800C461E4615464FF0000B18E098F855
:10AC1000021099F800A001F0CBFE024621465046F2
:10AC2000F2B100F085FE00B3A378DA0916BF0B9AE3
:10AC30003B70137023780BF1010BAB451C441DD006
:10AC40006378052B20464FF000020ED1E17801F029
:10AC50000301B14209D1A37803F07F03082BD6D9B1
:10AC6000084B1B68DA0700D500BE064B1B68DB07E4
:10AC700002D40020BDE8F88F00BEFAE70120BDE84D
:10AC8000F88F00BFF0ED00E0186100201C7200207A
:10AC900070B51D4E84B000230825CDE90201019353
:10ACA00030688DF80550144682B9134601A94FF05B
:10ACB000FF3202F0F1F9003818BF0120D8B9134B68
:10ACC0001B68DB0700D500BE04B070BD6A4601A951
:10ACD000009302F0C7FB009B43B10D4B4FF0805235
:10ACE0005A6040BFBFF34F8FBFF36F8F003818BF5C
:10ACF00001200028E3D09DF805109DF804002246AD
:10AD0000FFF72EF904B070BD58720020F0ED00E09E
:10AD100000ED00E038B58B7803F07F03082B06D9EF
:10AD20000B4B1B68DB0700D500BE002038BD094A6D
:10AD3000094B0C46204691781D78002201F038FE20
:10AD40000028EDD021462846BDE8384000F0F0BD8F
:10AD5000F0ED00E01C72002018610020CB090548CE
:10AD6000054A263301F07F0103EB410108441168D5
:10AD700001F0D4BD1C72002054720020CB0905489C
:10AD8000054A263301F07F0103EB410108441168B5
:10AD900001F0F0BD1C72002054720020154838B537
:10ADA00001F07F0500EB450000EBD1142034A079C1
:10ADB000C00706D5104B1B68DA0700D500BE00207F
:10ADC00038BDA5790D4845F001050078A57100F062
:10ADD000F7FE0028F4D1A379074A60F30003A371BA
:10ADE000A37960F38203A3711368DB07E7D500BE84
:10ADF00038BD00BF1C720020F0ED00E0186100209B
:10AE0000054B01F07F0203EB420303EBD11191F8F4
:10AE1000260000F0010070471C72002010B50C4B9A
:10AE200018780C4600F0D6FF0A4B04F07F0103EBC4
:10AE3000410303EBD41191F8263043F0020381F86B
:10AE4000263091F8263043F0010381F8263010BDFA
:10AE5000186100201C720020054B01F07F0203EBFB
:10AE6000420303EBD11191F82600C0F34000704774
:10AE70001C72002010B50F4B18780C4600F036FEFF
:10AE80000D4B04F07F0103EB410303EBD41191F868
:10AE900026306FF3410381F8263091F826306FF3A6
:10AEA000000381F8263091F826306FF3820381F891
:10AEB000263010BD186100201C720020704700BFB2
:10AEC0000B4630B40A4C496805461868224603C24E
:10AED00093F9002000239A42C4E902332846A8BF10
:10AEE000802130BCB8BF19461A46FFF757BF00BFD4
:10AEF00060730020F0B50C46284F4968064620686C
:10AF0000BA603D4603C50021F981E588AB4228BF00
:10AF10002B4683B0BB81A5B11BB352B397F9000098
:10AF2000402B28BF402300282ADB1D4A3046FFF76C
:10AF300035FF98B91B4B1B68DB071ED500BE03B05D
:10AF4000F0BD94F90030002BACBF802100213046C9
:10AF50002B462A46FFF722FF0028EBD0012003B042
:10AF6000F0BD97F90020002AACBF194680211A468F
:10AF7000DCE70C4B1B68D9070CD4002003B0F0BDF4
:10AF80001146074801931A4605F0F6F9044A019B59
:10AF90008021CBE700BE1046E1E700BF60730020D0
:10AFA00020730020F0ED00E0034B0022C3E90022F3
:10AFB000C3E902221A61704760730020014B1861D7
:10AFC000704700BF607300200346044A5968006858
:10AFD000134603C30023C2E90233704760730020A5
:10AFE000F0B5404C2578C909B1EBD51F83B01F4699
:10AFF00006461FD03BB13C4B1B68DA0700D500BEAC
:10B00000002003B0F0BD2146FFF758FF236973B15C
:10B010002246304603219847012003B0F0BD014687
:10B02000304600F0D7FE3046802100F0D3FE0120EC
:10B0300003B0F0BD94F90020002A06DBA0680028C8
:10B04000DED02A491A4605F097F9E589A168E28819
:10B050003D44ADB23944AA42E581A16015D03F2FED
:10B0600013D9A28994F90000531B9BB2402B28BF2F
:10B070004023002824DB954230D01C4A0021304672
:10B08000FFF78CFE0028D2D114E023692BB1154ABA
:10B090000221304698470028C1D094F900200023AF
:10B0A0009A42ACBF8021194630461A46FFF776FE19
:10B0B0000028BCD10C4B1B68DB07A1D500BEA0E764
:10B0C000954208D01A460948019305F055F9074AF8
:10B0D000019B8021D3E780210022D0E700210A468E
:10B0E000CDE700BF60730020F0ED00E0207300208A
:10B0F00000B1704703F000BF00B1704703F006BF16
:10B100000138C3B2042B08D85E230D4A03FB00F0BC
:10B11000131810331B79DB0706D40A4B1B68DB07B7
:10B1200000D500BE00207047CB093D3301F07F0100
:10B1300003EB4101044B08441044196801F0EEBBD5
:10B1400074730020F0ED00E04C7500200138C3B2AC
:10B15000042B08D85E230B4A03FB00F013181033AE
:10B160001B79DB0701D400207047CB093D3301F088
:10B170007F0103EB4101044B08441044196801F0BE
:10B18000F9BB00BF747300204C750020F0B5441E5D
:10B19000E5B2042D83B02ED85E2505FB04F5174ECD
:10B1A00001F07F0405EB4404344404EBD11438343B
:10B1B0006779FF0708D5124B186810F0010001D01D
:10B1C00000BE002003B0F0BD6779009347F001078F
:10B1D000134667710A460146705D00F0BBF900280E
:10B1E000F0D1637960F300036371637960F38203E4
:10B1F000637103B0F0BD002003B0F0BD7473002094
:10B20000F0ED00E0F0B583B041F0020100278DF8C9
:10B2100000108DF801200446ADF80470A3B101219F
:10B22000FBF784FC022301AA69462046FBF7AAFC2F
:10B23000394606462046FBF779FC184F9DF8043046
:10B24000FB70304603B0F0BD144F1D46F86D4FF053
:10B25000FF3102F0E1FA29462046FBF79FFC204629
:10B260000121FBF763FC01AA022369462046FBF794
:10B2700089FC294606462046FBF758FC204601215A
:10B28000FBF78CFC2B46F86D2A46294601F004FF9B
:10B290009DF80430FB70304603B0F0BD50750020BF
:10B2A0002DE9F041324E96F806C08C4582B09046AA
:10B2B00004461D4605D00F460A46E021B771FFF748
:10B2C000A1FF2223D8F800708DF8063015B30121B4
:10B2D0002046FBF72BFC01230DF107020DF10601BF
:10B2E0002046FBF74FFC9DF80730F37039460823E2
:10B2F00000222046FBF746FC00212046FBF716FC07
:10B3000010222B462046F021F271FFF77BFF02B09E
:10B31000BDE8F081F06D4FF0FF3102F07DFA294673
:10B320002046FBF73BFC20460121FBF7FFFB0DF11C
:10B3300007020DF1060101232046FBF723FC9DF8CF
:10B340000730F3702A46082339462046FBF71AFCDB
:10B3500029462046FBF7EAFB20460121FBF71EFCAD
:10B36000F06D2B462A46294601F096FEC8E700BF3D
:10B37000507500202DE9F043464E83B00C46074639
:10B38000984692B10A78B179914203D0E021B27126
:10B39000FFF738FFA37813F0100F14BF802240226C
:10B3A0004346E8213846FFF72DFF228833899A4229
:10B3B00013D0A588E2886388AD1AADB2C3F34A13EF
:10B3C0009D4228BF1D4615F0FF0513D12A4643466E
:10B3D00038213846B570FFF715FF2378337262784D
:10B3E000727243463846F021F271FFF70BFF03B04B
:10B3F000BDE8F0831223D4F808908DF80630B8F138
:10B40000000F19D038460121FBF790FB0DF1070220
:10B410000DF1060101233846FBF7B4FB9DF8073018
:10B42000F37049462B4600223846FBF7ABFB002160
:10B430003846FBF77BFBC9E7F06D4FF0FF3102F0B8
:10B44000EBF941463846FBF7A9FB38460121FBF7EB
:10B450006DFB0DF107020DF1060101233846FBF7E4
:10B4600091FB9DF80730F37042462B46494638461B
:10B47000FBF788FB41463846FBF758FB384601216D
:10B48000FBF78CFBF06D43464246414601F004FE5B
:10B490009CE700BF5075002070B50C4649781346F4
:10B4A0000A0782B0054605D1CE0648D4A26862B329
:10B4B000A28852B38A0620D4254E2278B1799142CF
:10B4C00006D0E02128460193B271FFF79BFE019B55
:10B4D000A278019312F0100F14BF20221022E8214D
:10B4E0002846FFF78FFE6278019BF2712846F02113
:10B4F00002B0BDE87040FFF785BE21462846012214
:10B5000002B0BDE87040FFF735BF114E2278B07928
:10B5100001F0200464F07F049042E4B206D0E02100
:10B5200028460193B271FFF76DFE019BF471284626
:10B530002246F02102B0BDE87040FFF763BE22460C
:10B5400012F8081B02B0BDE87040FFF7A9BE00BFAB
:10B55000507500202DE9F04102F07F0C064651EABB
:10B560000C00BDF818E04FEAD2122DD13C4FA7F1E4
:10B5700060087978B87821F0300182F0010241EA60
:10B58000421240F010017A70B970BA78BB600323A0
:10B5900063F303020025A7F804E0BA70FD80284693
:10B5A000FFF7A6FD98F80A40D4BB0125204688F88D
:10B5B0000A50FFF7A1FD2246304639462C46FFF7D8
:10B5C0006BFF2046BDE8F081DFF8988082F0010033
:10B5D000BCF1000F2AD00122444604E00132142AB3
:10B5E00004F10C0418D094F86C508D42F6D102EBA3
:10B5F000420508EB850595F8615005F00F07674592
:10B60000ECD1C5F34015854204F16C07BDD0013281
:10B61000142A04F10C04E6D100242046BDE8F08190
:10B620002846FFF769FD2046BDE8F0810120444629
:10B6300002E001301428EFD094F86C508D4204F1F0
:10B640000C04F6D100EB400508EB8507AD0097F838
:10B6500061703F07EDD1603508EB050789E700BF52
:10B66000B07500205075002042DF704743DF7047FF
:10B6700044DF704712DF7047F0B4364CBFF35B8F86
:10B68000014604F590730125D3E84F2FC3E8405FCE
:10B690000028F9D1BFF35B8F12F0FF0F3CD10829CE
:10B6A0002CD004EB41122C482C4F01F5947301EB84
:10B6B000810C50F823609388D2889A1A93B2B6B25C
:10B6C00000EB8C024FEA411CB34208B228BF33465C
:10B6D00054F80C60C2F8006707EB8101C2F8043728
:10B6E00047F82050BFF36F8FBFF34F8F1C4B994229
:10B6F00009D0043B994206D0F0BC7047164BD3F8F2
:10B70000C024D10313D5BFF35B8F002384F820310D
:10B71000BFF35B8FF0BC7047124B13485A68C2F3FB
:10B720000802003AF0BC18BF0122FFF7B1BA94F842
:10B730000B110029E7D00D49D4F80001C3F8A00788
:10B74000C3F8A4270D60BFF36F8FBFF34F8FF0BC1A
:10B75000704700BFA07600200070024028700240B1
:10B760005070024000ED00E0E5B702004870024072
:10B77000174BBFF35B8F01460122D3E84F0FC3E89D
:10B780004C2FBCF1000FF8D1BFF35B8F10F0FF0F0F
:10B7900014D10A60BFF36F8FBFF34F8F0D4B9942E7
:10B7A00003D0043B994200D070470B4BBFF35B8F33
:10B7B000002283F82021BFF35B8F7047074B0848B6
:10B7C0005A68C2F30802003A18BF0122FFF760BAB4
:10B7D000C077002050700240A076002000ED00E00D
:10B7E00071B70200F0B4344CBFF35B8FC1B204F503
:10B7F00090730125D3E84F2FC3E8405F0028F9D1AB
:10B80000BFF35B8F12F0FF0F39D1082929D02B48E5
:10B810002B4F01F5947304EB411250F82360938889
:10B82000D28801EB810C9A1A93B2B6B200EB8C026B
:10B830004801B3422058C2F8000728BF3346C2F877
:10B84000043707EB810047F82150BFF36F8FBFF338
:10B850004F8F1C4B984209D0043B984206D0F0BC55
:10B860007047164BD3F8C024D10313D5BFF35B8FB9
:10B87000002384F82031BFF35B8FF0BC7047124B7C
:10B8800012485A68C2F30802003AF0BC18BF0122FD
:10B89000FFF7FEB994F80B110029E7D00C49D4F852
:10B8A0000001C3F8A007C3F8A4270D60BFF36F8F92
:10B8B000BFF34F8FF0BC7047A076002000700240AD
:10B8C000287002405070024000ED00E0E5B7020031
:10B8D0004870024001207047014B80225A60704737
:10B8E00000E100E0074BD3F80014D3F80024002057
:10B8F0000A434FF48001C3F80024C3F85801C3F889
:10B900000413704700700240074B4FF4001229B136
:10B91000C3F80423054B83F821117047C3F80823AB
:10B92000024B83F82111704700700240A07600207E
:10B9300030B48A788C88C878434D02F07F014B0080
:10B9400003EBD21305EB031300F00300C4F30A0466
:10B9500001281C814FEAD2142FD0DCB13B488C1C4B
:10B96000012303FA04F4C0F80443D0F8104503FAA5
:10B9700001F12143C0F81015344B42F48071C3F833
:10B980001825C3F80C15BFF36F8FBFF34F8F01203D
:10B9900030BC70472D4801F10C05012303FA05F571
:10B9A000C0F80453D0F814558B4001F594712B4323
:10B9B000C0F8143540F82140DEE7082907D0244BB1
:10B9C000186810F00100E3D000BE0020E0E7ECB9F9
:10B9D000B5F818311BB11D4B8022C3F81C251B4A3A
:10B9E0000023C2F85031D2F8003313F4001308BF1B
:10B9F000C2F85431154B4FF44012C3F80423D3F866
:10BA0000142542F48072C3F81425BCE7B5F8082168
:10BA10000E4B0021C3F82C1112B18022C3F81C2553
:10BA20000A4AD2F8003313F4001308BFC2F85431A5
:10BA3000064B084AC3F80423D3F8102542F4807259
:10BA4000C3F810259FE700BFA076002000700240D9
:10BA5000F0ED00E0000820001E4B80222DE9F041AF
:10BA6000C3F88420BFF34F8FBFF36F8F1A4D1B4F66
:10BA70000D244FF0010800261949A000A4F10A0383
:10BA8000014408FA04F208FA03F31343C7F8083331
:10BA900028464E6001348E622022002104F094FC7E
:10BAA000142C05F12005E7D10E4BC7F808332022EE
:10BAB000C7F81C6500217E620B48BE6404F084FC5C
:10BAC000C7F81485C7F81085024B80225A60BDE87C
:10BAD000F08100BF00E100E0C0760020007002406D
